:060000000C9441010C9478
:1000060000000C9400000C9400000C9400000C946A
:1000160000000C9400000C9400000C9400000C945A
:1000260000000C9400000C9400000C9400000C944A
:1000360000000C9400000C9400000C9400000C943A
:1000460000000C9400000C9400000C9400000507BE
:100056002060000000000000005F000000070007AD
:1000660000147F147F14242A7F2A12231308646243
:1000760036495522500005030000001C22410000AD
:1000860041221C00082A1C2A0808083E08080050BD
:10009600300000080808080800303000002010086A
:1000A60004023E5149453E00427F400042615149AB
:1000B600462141454B311814127F102745454539D5
:1000C6003C4A494930017109050336494949360612
:1000D6004949291E00363600000056360000000841
:1000E600142241141414141441221408000201515C
:1000F6000906324979413E7E1111117E7F494949EF
:10010600363E414141227F4141221C7F49494941B6
:100116007F090901013E414151327F0808087F00ED
:10012600417F41002040413F017F081422417F402A
:100136004040407F0204027F7F0408107F3E414119
:10014600413E7F090909063E4151215E7F09192971
:1001560046464949493101017F01013F4040403F40
:100166001F2040201F7F2018207F6314081463037C
:1001760004780403615149454300007F414102046C
:1001860008102041417F0000040201020440404063
:100196004040000102040020545454787F484444EF
:1001A600383844444420384444487F38545454181A
:1001B600087E090102081454543C7F0804047800A0
:1001C600447D40002040443D00007F10284400410B
:1001D6007F40007C041804787C0804047838444482
:1001E60044387C14141408081414187C7C0804047D
:1001F600084854545420043F4440203C4040207C4E
:100206001C2040201C3C4030403C44281028440C14
:100216005050503C4464544C4400083641000000A1
:100226007F0000004136080002010204027F4141BE
:10023600417F000103070F1F3F7FFF001027E803E0
:1002460064000A00010000100001100001000E0EFB
:10025600000200000100000153636F72653A002539
:10026600640001002D4E414E00494E4600000A0032
:10027600040054020100800368020000F894EE278F
:10028600ECBBF1E0FBBFEBBFE5BF8DE0A2E0BB2717
:10029600ED938A95E9F780E094E0A0E6ED93019767
:1002A600E9F7E4E7F2E085919591009761F0A59171
:1002B600B59105901590BF01F00105900D9201973B
:1002C600E1F7FB01F0CFEFE5EDBFE4E0EEBFC0E6FE
:1002D600D1E00C94B2031A930A93E42DEF5FEE0F6C
:1002E600EE0F0E2F10E0E52DF0E032960E94D40CB2
:1002F600A12FB0E0AE17BF07ECF41A93A0E00E945E
:10030600D8071A93A1E00E94D8071A93A2E00E9488
:10031600D8071A93A3E00E944E0B0E944E0BAF5FC4
:100326000E944E0BAE5F0E944E0BAD5F0E94D80737
:100336001F5FD9CFE52DEF5FEE0FEE0F1E2F00E00A
:10034600E52DF0E032960E94D40CA02FB0E0AE1757
:10035600BF07D4F4E0E00E94530BE1E00E94530B88
:10036600E2E00E94530BE3E0EA93A02F0E944E0BBB
:100376000E94570BE12FEE5F0E94530BE12FED5FBA
:100386000E94530B0F5FDCCF9CC00E945C0B0E9447
:10039600780BAF5F0E94780BAE5F0E94780B0E94CD
:1003A6007D0BEF5F0E94820BEF5F0E94880BEF5F71
:1003B6000E948F0BEF5FEA93A22F0E947D0BEE5FE8
:1003C6000E94820BEE5F0E94880BEE5F0E948F0BED
:1003D600EE5FEA93A22F0E947D0BED5F0E94820BD7
:1003E600ED5F0E94880BED5F0E948F0BED5FEA9335
:1003F600A22FAD5F0E94D80737C00E945C0B0E94F7
:10040600960BAF5F0E94960BAE5F0E94960B0E9402
:100416009B0BEF5F0E94A00BEF5F0E94A60BEF5FA6
:100426000E94AD0BEF5FEA93A22F0E949B0BEE5F3B
:100436000E94A00BEE5F0E94A60BEE5F0E94AD0B22
:10044600EE5FEA93A22F0E949B0BED5F0E94A00B2A
:10045600ED5F0E94A60BED5F0E94AD0BED5FEA9388
:10046600A22FAD5F0E94E0070E94760D25960895A3
:100476001A930A93E82DEF5FEE0FEE0F1E2FEB2D6A
:10048600EF5FEE0FEE0F0E2F1A93A02FAE5F0E94B6
:10049600570BE12FEF5F0E94B40BEF5F0E94BB0B7F
:1004A6000E94B40BEE5F0E94BB0BEA93A02FAD5FD8
:1004B6000E94D807E12FED5FEA93A02FAF5F0E945D
:1004C600D8070991199108952197E0E0E8830E94E1
:1004D6006D0D50E00E949D0ADF01E52DF0E00E94BF
:1004E600230D3E2F0E949D0ADF01E42DF0E00E94BD
:1004F600230D2E2F503019F5EE81EF5FEE833F5F0F
:10050600531629F430E02F5F421609F420E051E03B
:1005160040E0491598F4A62DBB27E42F0E94C30B93
:100526003A1739F4ADE7B2E0A00FB11FAC912A1724
:1005360009F002C050E002C04F5FEBCFDBCF832E45
:10054600B22E96DF0E94740D27960895AA932197DE
:100556000E946D0D40E0EF81EA0DEE83E03009F474
:10056600AF82DA2CAF80EF81F0E0E230A0E0FA074C
:1005760039F40E94CE0B0E94D30BE1505E2F22C0AD
:10058600E130A0E0FA0729F40E94CE0BE081EF5F8C
:1005960013C0EE3FA0E0FA0739F40E94CE0B0E948A
:1005A600D30BEF5F5E2F0EC0EF3FA0E0FA0751F4CA
:1005B6000E94CE0BE081E1502E2FE72DF0E0E358AC
:1005C600FD4F508173940E94CE0B2083E72DF0E0FF
:1005D600E358FD4F5083A72DD8DE821611F4B516C9
:1005E60009F004C041E093946FDF03C0A62D05DF38
:1005F600639430E0E92DF0E03197A32FB0E0AE1719
:10060600BF07A4F4A62DBB27E32F0E94C30B2A170E
:1006160039F4ADE7B2E0A00FB11FAC915A1709F05B
:1006260003C0EFEF0C94C9083F5FE4CF521631F0D8
:10063600451621F02F3F11F05F3F19F4EEEF0C94B1
:10064600C9080E94DA0BA92DB0E0EA17FB0719F4D6
:10065600E2E00C94C908E42F0C94C9086697E0E020
:10066600EC8B0E946D0D10E000E03FEF2FEF552D53
:10067600442DEB8F0E94DA0B0E94E10B0CF049C06F
:10068600EB8DF0E0E358FE4F1083EB8DF0E0E3587E
:10069600FD4F0083AA8DBB27E4E0F0E00E94230D06
:1006A600309751F41F5F511731F411500F5F2F5FD0
:1006B600EA8DEF5FEA8F29C0E130A0E0FA0751F436
:1006C6000F5F401731F4015011505150EA8DEF5F22
:1006D600EA8F1BC0E230A0E0FA0751F4115031173F
:1006E60031F41F5F01504150EA8DEF5FEA8F0DC074
:1006F600E330A0E0FA0749F40150201731F40F5F08
:100706001F5F3F5FEA8DEF5FEA8FEB8DEF5FEB8F49
:10071600B1CFE0E0EB8F0E94DA0B0E94E10B54F4BC
:10072600AB8D33DEA4E1B0E00E94B20CEB8DEF5F3F
:10073600EB8FF1CFE0E0EB8F0E94DA0B0E94E10B2A
:1007460054F4AB8D5ADEA4E1B0E00E94B20CEB8DFE
:10075600EF5FEB8FF1CF0E94740D6C9608956B9747
:10076600E1E0EA8F00E010E040E050E0E4E5F0E090
:10077600E883F983E0E0EA83EB83EC83ED83DE0133
:1007860020D184D1ABE7B0E00E94930AE0E0EABB57
:10079600EFEFEBBBA0DDE2E07E2E6624E619EF5F0D
:1007A6009E2E00E010E00C32E1E01E0774F4ADE787
:1007B600B1E0A00FB11FE0E0EC93ADE7B2E0A00F0F
:1007C600B11FEC930F5F1F4FEECFE0E0E0937D018A
:1007D6000E94E60BE0937D02E1E0E0937E010E9439
:1007E600E60BE0937E02E2E0E0937F010E94E60BD7
:1007F600E0937F02A0E0C9DDA1E0C7DDA2E0C5DD90
:1008060063DEFE013696FA93EA93EEE5F2E0FA939A
:10081600EA9380E00E945F0A2496E0E5EA93AAE064
:100826000E94ED0BE1E0EA8F31E0AE2EDE2EAA8DBE
:10083600A13009F045C03A2DC89B32E0C99B31E092
:10084600CA9B3EEFCB9B3FEFA32F80DE2E2FF0E01F
:10085600EE3FA0E0FA0719F40E94F30B16C0EF3F33
:10086600A0E0FA0719F40E94F30B0FC0309779F055
:10087600E130A0E0FA0729F4E22FF0E04E0F5F1F07
:1008860006C0E230A0E0FA0711F4E0E0EA8FFE01CC
:100896003696FA93EA93E5E6F2E0FA93EA93FA01DA
:1008A6000E94D90C0E94470D84E00E945F0A289698
:1008B600EAE5EA93A4E10E94ED0B0E94F30BB7CFA1
:1008C600CDDE69CFFFCF0000909A00000895909882
:1008D6009498959808951A93F6DF13B39098E12F9C
:1008E60019910895AA931A93E0E0E4BB919A92981D
:1008F600E981EF5F1E2F10FF02C0949A01C0949801
:1009060011FF02C0959A01C09598E5DFE078E9F7F6
:10091600188155C0AA93A981E5DF0E94F70B4FC045
:10092600E0917E03EA93E0917D03EF73E064AE2FDE
:10093600F1DFE0917E03EA93E0917F03E86BAE2F4F
:10094600E9DF0895AA93E981E0937D03E295EF70CC
:10095600E695E695E0937E03E881E0937F03E0DF8A
:100966002EC0A0917D03AF5FA0937D03A03818F041
:10097600E0E0E0937D03E0917D03EF7331F4E091D5
:100986007D03EA93A0917F03DDDF0895AA93A091EA
:100996007E03A8DF929A0E94F70B21960895A091F4
:1009A6007E03A0DFE0E0E4BB919A929A94DF08957B
:1009B6000E94000C0E94050CF2DFB2DFF0DF2296E7
:1009C6000895BA93AA931A93889A899A8A9A8B9ABF
:1009D600939A8C9A8D9A7BDF9398A4E6B0E00E9456
:1009E600B20C939A10E0123040F41A93AFE392DF00
:1009F6001A931395A0EC8EDFF6CFE1E0E093600149
:100A0600E0E0E0936101E981FA813097A9F0A981DC
:100A1600BA810E943F0DE0936401F093650112963E
:100A26000E943F0DE0937901F0937A01A981BA8182
:100A360014960E943F0D0AC0E0E0F0E0E0936401E6
:100A4600F0936501E0937901F0937A01E0937B01DD
:100A5600F0937C01E1E0E0936601E0936701E093A7
:100A66006801EFEFE0936901E1E0E0937001E1E7EF
:100A7600F1E0FA93EA93EFEFEA93A8E0B0E00E9480
:100A8600B40A04D0E1E01881239608950E946F0D00
:100A960000E030E0E0916101E03009F00FEF38301E
:100AA60078F4E0E0EA93A32F3F5F4CDF10E0A12F3C
:100AB6001F5FA03820F4A02F0E940B0CF8CFEFCFB9
:100AC600E0E0EA93A0E03EDFE0E0EA93A0E073D343
:100AD6000E94760D24960895AA931A930A93AC81E0
:100AE600A03818F4AB81A03420F0198108810C9449
:100AF600C20AEC81EA93AC815BDF1E2F11DFEB812A
:100B0600E770A1E00E94C40C0E2FEA81E03011F0DC
:100B1600102B03C0E02FE0951E23A12F37DF19818C
:100B260008810C94C20AAA931A93ED81EA93AD81C7
:100B36003FDF1E2FF5DEE981E73011F0E83039F4AA
:100B4600EB81EA93AA810E94E80AEB8308C0E330AE
:100B560021F4EB81E095EB8302C0E03021F4EA81D9
:100B6600E0951E2302C0E23029F4EA81AB81EA2334
:100B76001E2B0EC0E13029F4EA81AB81EA231E2741
:100B860007C0E43029F4EA81E095AB81EA2B1E2305
:100B9600A12F0E940B0C188126960895AA932397DD
:100BA6000E946D0DA889A03848F4AF85A03430F4B2
:100BB600AE85A03019F0AD85A03009F4C8C1EE8528
:100BC600E887A889BB27EE85F0E0AE0FBF1FA138E6
:100BD600E0E0BE0720F0A889E0E8EA1BEE872D8555
:100BE600AF85BB27ED85F0E0AE0FBF1FA134E0E077
:100BF600BE0720F0AF85E0E4EA1BED87A985A630A5
:100C060009F05BC0EC85E13009F4A1C1E33039F4A9
:100C1600E0917B01F0917C01309709F498C1088539
:100C2600ED85E695E695E6953E2FE22FE77019F4F9
:100C3600AD852A17E9F0A02FBB27E32FF0E00E942D
:100C4600DE0CAA85BB850E940F0C26952695269557
:100C5600532F5F935F5FE22FAF91EA1748F0102F93
:100C6600E12F1150E03019F00E94140CF9CFF1CFAA
:100C7600AE850A1711F1EE85AA85BB85F0E00E94C4
:100C86000F0CED85E77009F03F5F20E02F932F5F93
:100C9600E32FAF91AE1788F41E851F931F5FE02FD9
:100CA600AF91AE1718F40E94140CF7CFEE85AE8103
:100CB600BF81F0E00E940F0CE9CFEF85E7703E2F71
:100CC600ED85E03009F443C1EA85FB85EE83FF83B9
:100CD60010E00889303009F065C0AD85A83008F409
:100CE6005CC0E985E03011F0E33009F402C0E7307A
:100CF60009F402C0E83009F402C0E63009F402C083
:100D0600E93009F402C0EA3021F40A93E8890E9426
:100D1600050C1F931F5FEE85AF91AE17B8F5A98539
:100D2600A63061F43CDEFCDD0E94210CFA93EA93C6
:100D360036DEAE2F0E942F0B14DE27C0E985E93080
:100D460011F450E00EC0EA3011F45FEF0AC00E94C1
:100D5600210C0E942A0C5E2FE985E73011F0E8305D
:100D660021F40E94300C5E2F06C0E33011F450953A
:100D760002C0E03021F4A52F0E940B0C06C00E9491
:100D8600340CEFEFEA93AD85CEDEC3CFEF85E85F97
:100D9600EF87ED85E850ED87D1C05D8520E0E0E086
:100DA600ED877AC0E32FAD85AE0FA93020F42D85EF
:100DB600E0E0ED8703C0E8E0E31B2E2F3A93A22F75
:100DC6000E94DD0A4E2FE985E630F1F41F931F5F7E
:100DD600EE85AF91AE17B8F40E943A0CAE2FE32F12
:100DE6000E94CC0C0E94410CE32FA42F0E94CC0C35
:100DF600E095E1215E2B0E94210CFA93EA93A52F40
:100E06000E942F0BE3CF2CC0E93011F450E003C051
:100E1600EA30A9F45FEF0E94300CAE2FE32F0E9458
:100E2600C40C5E2F1F931F5FEE85AF91AE1730F493
:100E36000E94340C4A93A0E076DEF4CF11C01F93D3
:100E46001F5FEE85AF91AE1758F40E944C0CAE2F83
:100E5600E32F0E94C40CEA934A93AD8564DEEFCF7C
:100E6600ED85E03009F473C0AD85A83028F4ED8532
:100E7600E21B5E2FE0E003C0532FED85E850ED87BF
:100E860010E0EF85E85FEF87E8E0E31B2E2F088987
:100E9600EA85FB85EE83FF83E52FF0E0E85CFD4FF6
:100EA6004491E985E630F1F41F931F5FEE85AF911B
:100EB600AE17B8F40E943A0CAE2FE22F0E94C40C73
:100EC6000E94410CE22FA42F0E94C40CE095E12160
:100ED6005E2B0E94210CFA93EA93A52F0E942F0BFA
:100EE600E3CF2CC0E93011F450E003C0EA30A9F496
:100EF6005FEF0E94300CAE2FE22F0E94CC0C5E2FCB
:100F06001F931F5FEE85AF91AE1730F40E94340C2D
:100F16004A93A0E008DEF4CF11C01F931F5FEE8551
:100F2600AF91AE1758F40E944C0CAE2FE22F0E94E0
:100F3600CC0CEA934A93AD85F6DDEFCFE885AA851A
:100F4600BB85F0E0EA0FFB1FEA87FB87B9CE0E945C
:100F5600740D619608950E94590C24F0E0E0F0E0CB
:100F66000C94E60AA881B981A038E0E0BE0724F017
:100F7600EFE7F0E00C94E60AE881F9810C94E60AC2
:100F86000E94590C24F0E0E0F0E00C94E60AA881F7
:100F9600B981A034E0E0BE0724F0EFE3F0E00C9462
:100FA600E60AE881F9810C94E60A0E94000CEA93AD
:100FB600A091600191DD0C94E60A0E94000CEA9370
:100FC600A091610189DD0C94E60ABA93AA9323974E
:100FD6000E94600C8F01002E012A19F4E0E0F0E077
:100FE6005FC00E94670C0F820E94670C0E820E94EF
:100FF600670C0886EB85A885EA1718F4E0E0F0E0B0
:101006004FC0F8010F5F1F4F5491A885BB27EE27ED
:10101600A50FBE1FEB85F0E0EA17FB0718F0E0E02E
:10102600F0E03EC0EE81E695E695E6954E2FEE8120
:10103600E77009F04F5FEF81E030A1F0A985BA852E
:10104600EC93A885EB85EA1BF0E0DF01EF81F0E089
:101056000E94DE0CDF01E42FF0E00E94DE0CE00FC0
:10106600F11F1EC09801E52FF0E00E0F1F1FA88587
:10107600AF5FA887A150EB85AE1760F4F9012F5F2B
:101086003F4FA491B0E0E42FF0E00E94DE0C0E0F7B
:101096001F1FEDCFF901E491A985BA85EC93F801FC
:1010A6000E94740D2C960895E0E0E0936201A091F1
:1010B6006301BB270E946C0CF0E0AE0FBF1FE091EE
:1010C6006701F0E0AE0FBF1F5BDFE0936301089599
:1010D600AA9321970E94600C309709F455C0AF81FE
:1010E600AA3009F44FC0EF81EA93DE0117966DDF4F
:1010F600AF01309709F44AC0E0916601AE81EA0F6C
:101106003E2FA0916201BB27F0E0EA0FFB1F8F0183
:101116000138E0E01E0718F0032F1127C5DFE09124
:101126006201EA93E0916301EA93E885EA930E94FB
:101136006C0CEA93E1E0EA935A934A93A7E02EDD1A
:10114600E0916201AE81EA0FEA93E0916301EA93CE
:10115600E0916601EA930E946C0C0E94730CE09188
:101166006201EA93A09163010E946C0CEA0FEA9374
:101176003A93E09167010E94730CE0E8F0E0E01713
:10118600F10711F491DF02C0009362010E94740D11
:1011960028960895BA93AA931A93A981BA81ED91D4
:1011A600A983BA831E2FE03019F0A12F91DFF5CF66
:1011B60018810C942D0BAA93A981BB27CCDEE09352
:1011C6006201A881BB27DCDEE09363010C94E60A8A
:1011D600BA93AA931A930A93AA81BB8112960E9484
:1011E6003F0D309759F1AA81BB8114960E943F0D9D
:1011F6008F01309761F00230E0E01E0798F0F801A9
:1012060031978F01AA81BB811496ED93FC93AA8135
:10121600BB811296ED91FD913196FE93EE93319737
:10122600AC81A083AA81BB810E943F0DFF232AF0D7
:10123600ED91FD913196FE93EE9306C0AA81BB8196
:10124600EFEFFFEFED93FC93198108810C94C20A2E
:10125600BA93AA9326970E946D0D10E0AC85BD85C2
:10126600E0E0F0E0ED93FC93EA89FB893196EA8BA6
:10127600FB8B3197E4912E2FE03009F415C1E12F55
:10128600E03039F4253211F411E002C00E947D0CE1
:101296000AC1E130A9F4253219F40E947D0C02C17D
:1012A60012E040E000E02D3211F401E0FCC02B32E8
:1012B60011F44BE2F8C0203211F440E2F4C002C04F
:1012C600E23039F450E013E0203311F40068EBC04B
:1012D60003C0E33009F0E7C0203310F02A3308F0EA
:1012E60007C0AAE05A9F502DE22FE0535E0FDBC0E5
:1012F600E22FE33649F40E94840CE889F989A48137
:10130600AA930E948A0CCEC0E33741F40E94840C53
:101316000E94900C0E94C40A1E2F0AC0E03761F496
:101326000E94840C0E94900C0E94D00A1E2F086016
:1013360002600F7730E034C0E43611F0E93611F47C
:10134600046002C0E53731F4E2E4F2E0EE83FF83A5
:1013560015E00CC0E83511F4086003C0E83709F061
:10136600A1C0ECE4F2E0EE83FF8314E002FF14C0B8
:101376000E94840C0E949A0CAB85AA233AF4EA8553
:10138600FB850E94C00CEA87FB874DE2403011F0D6
:101396001F5F01C00B7F04C00E94840C0E949A0C40
:1013A60000FD11C0151778F407FF08C002FF04C03E
:1013B6000B7F242F115001C020E301C020E20E94C0
:1013C6007D0C5150EFCF312F01FF17C03030A1F007
:1013D60003FF06C0EE81FF812591EE83FF8305C0E2
:1013E600AE81BF812D91AE83BF830E947D0C5030AC
:1013F60009F051503150EACF4BC020E3EE81FF8116
:101406000E94430DE887F987EE81FF813296EE83CD
:10141600FF83E885F985AA85BB85AE17BF0750F01F
:101426002F5FA885B985EA85FB85EA1BFB0BEA8752
:10143600FB87EFCF2A3328F003FF02C0295F01C0E4
:10144600295D04FD1AC0213320F4A885B9851197BA
:1014560009F409C0531710F000FF01C013C020E2C1
:1014660007FF0BC020E3006102FF07C00B7F4A9312
:101476000E948A0C503009F051500E947D0C503069
:1014860009F051503150A885B985129708F0B5CFAB
:1014960000FF08C0503031F05150E0E2EA930E945C
:1014A6008A0CF8CF10E0E0CEAC85BD850E943F0DDA
:1014B6000E94740D64960895FF92F82E26970E9456
:1014C6006F0D0E94A20C309719F4EFEFFFEF23C0C7
:1014D600DE0116960E94BC0C8D010E94A20CEE83C2
:1014E600FF83E0E0E887E987DE011A960E94BC0CDC
:1014F6000E943F0DFA93EA931A930A93EBEEF8E0F3
:10150600FA93EA93DE011A96A3DE9F01AE81BF81AC
:10151600E0E0EC93F9010E94760D2A96FF9008957B
:10152600BA93AA93E881F9810E94D90C0E94A90C6A
:101536000C94E60AE0918003F091810360918203A6
:1015460070918303ADE6BEE486EC91E40E94E60C5E
:10155600EE59F8486F4F7F4F0E94A90CFB01FF77A9
:101566000895BA93AA93B981A881109631F0FC81A7
:10157600EB816A8161931197E9F7EB81FC812596EE
:101586000895BA93AA93A991B991EE27FF276D9171
:10159600662311F03196FBCF0895BA93AA93AA2732
:1015A600BB27E991F9910590002011F01196FBCF28
:1015B600FD010895AA93E881F0E0E85CFD4FA4914F
:1015C600E9810E94C40C22960895AA931A93E98190
:1015D600E73011F0EA3019F41091600109C0E930E2
:1015E60019F41091610104C0E830A1F41091700162
:1015F600E0916101E03049F0103019F0EFEF188109
:1016060029C0EA81E095188125C0103019F4E0E080
:10161600188120C0EA8118811DC0BA93AA93EA8175
:10162600E13021F4E881F981E49114C0E23029F433
:10163600A881B9810E944C0D0DC0E33041F4A88108
:10164600B981E0917901F0917A01099503C0A881E9
:10165600B981EC9123960895AA93EB81E03029F4A1
:10166600E881A981BA81EC9314C0E23031F4E881B3
:10167600A981BA810E94580D0CC0E33051F4E9816A
:10168600FA81FA93EA93AA81E0917B01F0917C01B9
:101696000995249608950E94D8071A93A02F0895B5
:1016A600EA93A02F0C94D8070E94D807E12FEF5F8A
:1016B600F7CFAA930E946F0DEC81F0E0E358FE4F3E
:1016C600E0811E2FEC81F0E0E358FD4FE0810E2F04
:1016D600E12FEF5FEE0FEE0F3E2FE02FEF5FEE0FE5
:1016E600EE0F2E2F3A93A22F08950E94D8073A9311
:1016F600A22F0895AD5F0E94D807E32F0895EA93BD
:10170600A22F0E94D807E32F0895EA93A22FAF5F76
:101716000E94D807E32F0895EA93A22FAE5F0E9496
:10172600D807E32F08950E94E0073A93A22F089561
:10173600AD5F0E94E007E32F0895EA93A22F0E946F
:10174600E007E32F0895EA93A22FAF5F0E94E00718
:10175600E32F0895EA93A22FAE5F0E94E007E32FDE
:101766000895EA93A02FAF5F0E94D807E12F08954E
:10177600EA93A02FAE5F0E94D807E12FEE5F08958F
:10178600F0E0EA0FFB1F8F011070ADE7B1E0A00F8C
:10179600B11FAC910895E72DF0E0E358FE4F089590
:1017A6002081E72DF0E0E358FD4FE0810895A52D57
:1017B600BB27E42DF0E00E94060D0895AB8DB0E046
:1017C600AE17BF070895A42DB0E0E2E0F0E00E9456
:1017D6001E0D08950E94DE08DE0116960C94CD08B3
:1017E600A4EFB1E00C94B20C9198EFEFE4BBE88162
:1017F600E5BB0E9466040C946A04AA93E981EA9305
:10180600E9810895E695E695E695AE2F0C94A50434
:101816000E94C9040C94B404EA0FFB1FEE83FF83F5
:101826000895EC85EA93EF81F8853196EF83F88782
:101836003197FA93EA93A0E00C942F0BEC85EA9388
:10184600EF81F8853196EF83F887319708956627FB
:101856007727DF01CB010C94100B5A93AA850C94C1
:10186600E80A0A930395E889EA935A9308950A9336
:101876000395A8890E94DB04E42308955E2FEC8576
:10188600EA93AF81B885882799270E94100B1E2EF0
:1018960008950A930395E889EA93EE85EA93E98524
:1018A600FA853196E987FA873197D1CFBA93AA9309
:1018B600A881B9810E94690D08950E946D0DE0917D
:1018C6006401F09165010895F8010F5F1F4F0490C0
:1018D6000895E0916401F09165013196E4910895CF
:1018E600EA93E0E0EA93E0E0F0E0FA93EA93A9E015
:1018F6000C94D1052A93AD85BE85EF85F8890995A7
:101906000895E889F9893497E88BF98B0895AD85B0
:10191600BE85EF85F88909950895A889B989149631
:101926000E943F0DEE83FF83AE81BF810895A88993
:10193600B98914960E943F0DEA87FB870895DE0158
:101946001C960E94BC0C0E943F0D0895E0938003F4
:10195600F093810360938203709383030895109636
:1019660039F0A8958AEF90E00197F1F71197C9F73A
:1019760008950024AF0DB01D0895F195E195F0404E
:101986000895EE230E2EEA2F19F0EE0F0A94E9F7CA
:101996000895EE230E2EEA2F19F0E6950A94E9F73C
:1019A6000895EE0FFF1FEE0FFF1F08956F2F660FAE
:1019B600660B762F0895FA9FF02DEB9FF00DEA9FA8
:1019C600E02DF10D08957A9F702D6B9F700DF89F95
:1019D600700DE99F700D6A9F602D710DFB9F600D64
:1019E600711DE89F600D711D8827FA9FF02D610D0E
:1019F600781FEB9FF00D611D781FEA9FE02DF10D1A
:101A0600681F781F08952AD0D6DF0EF4B6DF089532
:101A16000024112490E1AA0FBB1F001C111C0E1AF2
:101A26001F0A18F40E0E1F1E01C0A1609A9599F7A1
:101A3600FD01D001089512D0EBDF0EF49EDF08956C
:101A4600E894B7FF04C0A095B09511966894F7FD89
:101A560094DFDEDFFD010EF490DF0895E894F7FFD2
:101A660002C08BDF6894B7FF06C0A095B0951196AB
:101A760000F8039400FA0895ED91FC9111970895EA
:101A86000590F491E02D08957A936A93FA93EA9378
:101A96000895E199FECFFF93FFB7F894AEBBBFBBA5
:101AA600E09AEDB3FFBFFF910895E19B02C0A895B0
:101AB600FCCF9FB7F894AEBBBFBBE09A8DB3E817D7
:101AC60019F0EDBBE29AE19A9FBF089500240A1629
:101AD6000B0608955A934A933A932A931A930A93B4
:101AE60008955D814C813B812A8119810881089581
:00000001FF
