:080000000C9441010C94000076
:100008000C9400000C9400000C9400000C94000068
:100018000C9400000C9400000C9400000C94000058
:100028000C9400000C9400000C9400000C94000048
:100038000C9400000C9400000C9400000C94000038
:100048000C9400000C9400000C940000050720603C
:10005800000000000000005F000000070007001417
:100068007F147F14242A7F2A1223130864623649D6
:100078005522500005030000001C224100004122C7
:100088001C00082A1C2A0808083E080800503000EE
:100098000008080808080030300000201008040292
:1000A8003E5149453E00427F400042615149462148
:1000B80041454B311814127F1027454545393C4AB4
:1000C8004949300171090503364949493606494904
:1000D800291E00363600000056360000000814229B
:1000E8004114141414144122140800020151090681
:1000F800324979413E7E1111117E7F494949363E88
:10010800414141227F4141221C7F494949417F09A0
:100118000901013E414151327F0808087F00417FB3
:1001280041002040413F017F081422417F40404068
:10013800407F0204027F7F0408107F3E4141413E18
:100148007F090909063E4151215E7F091929464662
:100158004949493101017F01013F4040403F1F208B
:1001680040201F7F2018207F63140814630304783D
:100178000403615149454300007F414102040810CE
:100188002041417F000004020102044040404040F9
:10019800000102040020545454787F4844443838FD
:1001A80044444420384444487F3854545418087E02
:1001B800090102081454543C7F0804047800447D63
:1001C80040002040443D00007F10284400417F400B
:1001D800007C041804787C080404783844444438C3
:1001E8007C14141408081414187C7C0804040848A7
:1001F80054545420043F4440203C4040207C1C2060
:1002080040201C3C4030403C44281028440C5050AE
:10021800503C4464544C44000836410000007F00C0
:1002280000004136080002010204027F4141417F7B
:10023800000103070F1F3F7FFF001027E80364003A
:100248000A00010000100001100001000E0E00025B
:1002580000000100000125642C25642C25640000A1
:1002680001002D4E414E00494E4600000A00040090
:1002780054020100800368020000F894EE27ECBBEA
:10028800F1E0FBBFEBBFE5BF8DE0A2E0BB27ED933C
:100298008A95E9F780E094E0A0E6ED930197E9F705
:1002A800E4E7F2E085919591009761F0A591B59109
:1002B80005901590BF01F00105900D920197E1F7A7
:1002C800FB01F0CFEFE5EDBFE4E0EEBFC0E6D1E023
:1002D8000C949E031A930A93E42DEF5FEE0FEE0F32
:1002E8000E2F0E94100510E0E52DF0E032960E94D6
:1002F800AD0CA12FB0E0AE17BF07ECF41A93A0E045
:100308000E949F071A93A1E00E949F071A93A2E0F8
:100318000E949F071A93A3E00E94150B0E94150BD9
:10032800AF5F0E94150BAE5F0E94150BAD5F0E9478
:100338009F071F5FD9CFE52DEF5FEE0FEE0F1E2F42
:1003480000E0E52DF0E032960E94AD0CA02FB0E061
:10035800AE17BF07D4F4E0E00E941A0BE1E00E9458
:100368001A0BE2E00E941A0BE3E0EA93A02F0E9426
:10037800150B0E941E0BE12FEE5F0E941A0BE12F56
:10038800ED5F0E941A0B0F5FDCCF9CC00E94230B0D
:100398000E943F0BAF5F0E943F0BAE5F0E943F0B76
:1003A8000E94440BEF5F0E94490BEF5F0E944F0BC6
:1003B800EF5F0E94560BEF5FEA93A22F0E94440B57
:1003C800EE5F0E94490BEE5F0E944F0BEE5F0E94AA
:1003D800560BEE5FEA93A22F0E94440BED5F0E943A
:1003E800490BED5F0E944F0BED5F0E94560BED5FCE
:1003F800EA93A22FAD5F0E949F0737C00E94230B8C
:100408000E945D0BAF5F0E945D0BAE5F0E945D0BAB
:100418000E94620BEF5F0E94670BEF5F0E946D0BFB
:10042800EF5F0E94740BEF5FEA93A22F0E94620BAA
:10043800EE5F0E94670BEE5F0E946D0BEE5F0E94FD
:10044800740BEE5FEA93A22F0E94620BED5F0E948D
:10045800670BED5F0E946D0BED5F0E94740BED5F03
:10046800EA93A22FAD5F0E94A7070E944F0D259621
:1004780008951A930A93E82DEF5FEE0FEE0F1E2FE3
:10048800EB2DEF5FEE0FEE0F0E2F1A93A02FAE5F3E
:100498000E941E0BE12FEF5F0E947B0BEF5F0E9413
:1004A800820B0E947B0BEE5F0E94820BEA93A02FC7
:1004B800AD5F0E949F07E12FED5FEA93A02FAF5F2A
:1004C8000E949F070991199108952197E0E0E88318
:1004D8000E94460D50E00E94640ADF01E52DF0E01D
:1004E8000E94FC0C3E2F0E94640ADF01E42DF0E01C
:1004F8000E94FC0C2E2F503019F5EE81EF5FEE8331
:100508003F5F531629F430E02F5F421609F420E0CC
:1005180051E040E0491598F4A62DBB27E42F0E942E
:100528008A0B3A1739F4ADE7B2E0A00FB11FAC91CE
:100538002A1709F002C050E002C04F5FEBCFDBCFB3
:10054800832EB22E96DF0E944D0D27960895AA930A
:100558006F97E0E0EE8F0E94460DEDA1EA0DEBA348
:10056800E03009F4ADA2DA2CADA030E4303858F40C
:1005780020E0383230F43A93A22F0E94A7072F5F69
:10058800F8CF3F5FF3CFEDA1F0E0E230A0E0FA074B
:1005980039F40E94950B0E949A0BE1504E2F22C00D
:1005A800E130A0E0FA0729F40E94950BE081EF5FA3
:1005B80013C0EE3FA0E0FA0739F40E94950B0E94A1
:1005C8009A0BEF5F4E2F0EC0EF3FA0E0FA0751F4F1
:1005D8000E94950BE081E1505E2FE72DF0E0E35893
:1005E800FD4F408173940E94950B5083E72DF0E0F6
:1005F800E358FD4F4083A72DC9DE851611F4B416C4
:1006080009F005C0E1E0ECA393945FDF03C0A62DD9
:10061800F5DE639430E0391590F5A62DBB27E32F5E
:100628000E948A0B5A1729F40E94A10BAC914A1711
:1006380009F002C0EFEF7AC0E32FF0E0DE011C966C
:10064800EA0FFB1F0083E32FF0E0DE011996EA0FA3
:10065800FB1F0F01ADE7B1E0A00FB11FEC91D00176
:10066800EC93E32FF0E0DE011696EA0FFB1F0F0173
:100678000E94A10BEC91D001EC933F5FCCCF0E947C
:10068800A60BE8890E94AF0BED890E94AF0BEA8D9B
:100698000E94AF0B0E94B50BA0E00E94BC0BED8539
:1006A8000E94AF0BEA890E94AF0BEF890E94AF0B43
:1006B8000E94B50BAAE00E94BC0BEA850E94AF0B12
:1006C800EF850E94AF0BEC890E94AF0B0E94B50B1F
:1006D800A4E10E94C30BFE013F96FA93EA93E1E678
:1006E800F2E0FA93EA93E52F0E94AF0BE42F0E9401
:1006F800AF0B88E00E94260A2C96E0E4EA93AEE16C
:100708000E94C30B551611F0441611F4EEEF0EC0FB
:10071800A52DBB27E42DF0E00E94DF0CA92DB0E049
:10072800EA17FB0711F4E2E001C0ECA10E944D0DAD
:10073800A69608952797E1E0EE8300E010E040E0F8
:1007480050E0E4E5F0E0E883F983E0E0EA83EB8356
:10075800EC83ED83DE01FBD0ABE7B0E00E945A0AE0
:10076800E0E0EABBEFEFEBBBE2E07E2E6624E619A1
:10077800EF5F9E2E00E010E00C32E1E01E076CF403
:10078800ADE7B1E0A00FB11FE0E0EC930E94A10B30
:10079800E0E0EC930F5F1F4FEFCFE0E0E0937D01C7
:1007A8000E94C90BE0937D02E1E0E0937E010E9484
:1007B800C90BE0937E02E2E0E0937F010E94C90B3F
:1007C800E0937F0287DDA0E0E1DDA1E0DFDDA2E0CC
:1007D800DDDD7BDEE1E0EE8331E0AE2EDE2EAE81A4
:1007E800A130A9F53A2DC89B32E0C99B31E0CA9BDC
:1007F8003EEFCB9B3FEFA32FAADE2E2FF0E0EE3F7C
:10080800AFEFFA0729F4A8EEB3E00E948B0C18C0EA
:10081800EF3FAFEFFA0729F4A8EEB3E00E948B0C84
:100828000FC0309779F0E130A0E0FA0729F4E22F01
:10083800F0E04E0F5F1F06C0E230A0E0FA0711F4A7
:10084800E0E0EE83A4EFB1E00E948B0CC8CF8CCF20
:10085800FFCF0000909A000008959098949895987A
:1008680008951A93F6DF13B39098E12F199108951C
:10087800AA931A93E0E0E4BB919A9298E981EF5F1A
:100888001E2F10FF02C0949A01C0949811FF02C055
:10089800959A01C09598E5DFE078E9F7188155C089
:1008A800AA93A981E5DF0E94D00B4FC0E0917E0397
:1008B800EA93E0917D03EF73E064AE2FF1DFE091FE
:1008C8007E03EA93E0917F03E86BAE2FE9DF08959A
:1008D800AA93E981E0937D03E295EF70E695E695AA
:1008E800E0937E03E881E0937F03E0DF2EC0A091D0
:1008F8007D03AF5FA0937D03A03818F0E0E0E0939C
:100908007D03E0917D03EF7331F4E0917D03EA9379
:10091800A0917F03DDDF0895AA93A0917E03A8DF4D
:10092800929A0E94D00B21960895A0917E03A0DF91
:10093800E0E0E4BB919A929A94DF08950E94D90B63
:100948000E94DE0BF2DFB2DFF0DF22960895BA9341
:10095800AA931A93889A899A8A9A8B9A939A8C9AC4
:100968008D9A7BDF9398A4E6B0E00E948B0C939A53
:1009780010E0123040F41A93AFE392DF1A93139504
:10098800A0EC8EDFF6CFE1E0E0936001E0E0E093D9
:100998006101E981FA813097A9F0A981BA810E94A1
:1009A800180DE0936401F093650112960E94180DEA
:1009B800E0937901F0937A01A981BA8114960E9493
:1009C800180D0AC0E0E0F0E0E0936401F0936501DF
:1009D800E0937901F0937A01E0937B01F0937C0135
:1009E800E1E0E0936601E0936701E0936801EFEFCF
:1009F800E0936901E1E0E0937001E1E7F1E0FA9347
:100A0800EA93EFEFEA93A8E0B0E00E947B0A04D0F3
:100A1800E1E01881239608950E94480D00E030E037
:100A2800E0916101E03009F00FEF383078F4E0E050
:100A3800EA93A32F3F5F4CDF10E0A12F1F5FA03880
:100A480020F4A02F0E94E40BF8CFEFCFE0E0EA9368
:100A5800A0E03EDFE0E0EA93A0E073D30E944F0DF0
:100A680024960895AA931A930A93AC81A03818F48F
:100A7800AB81A03420F0198108810C94890AEC819B
:100A8800EA93AC815BDF1E2F11DFEB81E770A1E0F9
:100A98000E949D0C0E2FEA81E03011F0102B03C04C
:100AA800E02FE0951E23A12F37DF198108810C94D0
:100AB800890AAA931A93ED81EA93AD813FDF1E2F2D
:100AC800F5DEE981E73011F0E83039F4EB81EA939B
:100AD800AA810E94AF0AEB8308C0E33021F4EB81BE
:100AE800E095EB8302C0E03021F4EA81E0951E2313
:100AF80002C0E23029F4EA81AB81EA231E2B0EC042
:100B0800E13029F4EA81AB81EA231E2707C0E430EB
:100B180029F4EA81E095AB81EA2B1E23A12F0E94DC
:100B2800E40B188126960895AA9323970E94460DF0
:100B3800A889A03848F4AF85A03430F4AE85A03039
:100B480019F0AD85A03009F4C8C1EE85E887A889F9
:100B5800BB27EE85F0E0AE0FBF1FA138E0E0BE076F
:100B680020F0A889E0E8EA1BEE872D85AF85BB2732
:100B7800ED85F0E0AE0FBF1FA134E0E0BE0720F026
:100B8800AF85E0E4EA1BED87A985A63009F05BC0D4
:100B9800EC85E13009F4A1C1E33039F4E0917B013F
:100BA800F0917C01309709F498C10885ED85E695A8
:100BB800E695E6953E2FE22FE77019F4AD852A17E2
:100BC800E9F0A02FBB27E32FF0E00E94B70CAA851D
:100BD800BB850E94E80B269526952695532F5F9393
:100BE8005F5FE22FAF91EA1748F0102FE12F115005
:100BF800E03019F00E94ED0BF9CFF1CFAE850A175E
:100C080011F1EE85AA85BB85F0E00E94E80BED8521
:100C1800E77009F03F5F20E02F932F5FE32FAF913C
:100C2800AE1788F41E851F931F5FE02FAF91AE1794
:100C380018F40E94ED0BF7CFEE85AE81BF81F0E08E
:100C48000E94E80BE9CFEF85E7703E2FED85E03095
:100C580009F443C1EA85FB85EE83FF8310E0088928
:100C6800303009F065C0AD85A83008F45CC0E9856E
:100C7800E03011F0E33009F402C0E73009F402C0B3
:100C8800E83009F402C0E63009F402C0E93009F49A
:100C980002C0EA3021F40A93E8890E94DE0B1F9310
:100CA8001F5FEE85AF91AE17B8F5A985A63061F440
:100CB8003CDEFCDD0E94FA0BFA93EA9336DEAE2F97
:100CC8000E94F60A14DE27C0E985E93011F450E0E5
:100CD8000EC0EA3011F45FEF0AC00E94FA0B0E94BE
:100CE800030C5E2FE985E73011F0E83021F40E940B
:100CF800090C5E2F06C0E33011F4509502C0E030B5
:100D080021F4A52F0E94E40B06C00E940D0CEFEF02
:100D1800EA93AD85CEDEC3CFEF85E85FEF87ED853B
:100D2800E850ED87D1C05D8520E0E0E0ED877AC02E
:100D3800E32FAD85AE0FA93020F42D85E0E0ED87D7
:100D480003C0E8E0E31B2E2F3A93A22F0E94A40AC7
:100D58004E2FE985E630F1F41F931F5FEE85AF91C2
:100D6800AE17B8F40E94130CAE2FE32F0E94A50C07
:100D78000E941A0CE32FA42F0E94A50CE095E121F4
:100D88005E2B0E94FA0BFA93EA93A52F0E94F60AAB
:100D9800E3CF2CC0E93011F450E003C0EA30A9F4E5
:100DA8005FEF0E94090CAE2FE32F0E949D0C5E2F6F
:100DB8001F931F5FEE85AF91AE1730F40E940D0CA4
:100DC8004A93A0E076DEF4CF11C01F931F5FEE8533
:100DD800AF91AE1758F40E94250CAE2FE32F0E9456
:100DE8009D0CEA934A93AD8564DEEFCFED85E03044
:100DF80009F473C0AD85A83028F4ED85E21B5E2F99
:100E0800E0E003C0532FED85E850ED8710E0EF8553
:100E1800E85FEF87E8E0E31B2E2F0889EA85FB856A
:100E2800EE83FF83E52FF0E0E85CFD4F4491E98510
:100E3800E630F1F41F931F5FEE85AF91AE17B8F45B
:100E48000E94130CAE2FE22F0E949D0C0E941A0CD8
:100E5800E22FA42F0E949D0CE095E1215E2B0E94B9
:100E6800FA0BFA93EA93A52F0E94F60AE3CF2CC057
:100E7800E93011F450E003C0EA30A9F45FEF0E94B2
:100E8800090CAE2FE22F0E94A50C5E2F1F931F5F47
:100E9800EE85AF91AE1730F40E940D0C4A93A0E096
:100EA80008DEF4CF11C01F931F5FEE85AF91AE1718
:100EB80058F40E94250CAE2FE22F0E94A50CEA934D
:100EC8004A93AD85F6DDEFCFE885AA85BB85F0E0CE
:100ED800EA0FFB1FEA87FB87B9CE0E944D0D61968A
:100EE80008950E94320C24F0E0E0F0E00C94AD0A82
:100EF800A881B981A038E0E0BE0724F0EFE7F0E070
:100F08000C94AD0AE881F9810C94AD0A0E94320C68
:100F180024F0E0E0F0E00C94AD0AA881B981A03497
:100F2800E0E0BE0724F0EFE3F0E00C94AD0AE881BE
:100F3800F9810C94AD0A0E94D90BEA93A091600143
:100F480091DD0C94AD0A0E94D90BEA93A09161013E
:100F580089DD0C94AD0ABA93AA9323970E94390CA1
:100F68008F01002E012A19F4E0E0F0E05FC00E9432
:100F7800400C0F820E94400C0E820E94400C088692
:100F8800EB85A885EA1718F4E0E0F0E04FC0F80117
:100F98000F5F1F4F5491A885BB27EE27A50FBE1FD3
:100FA800EB85F0E0EA17FB0718F0E0E0F0E03EC060
:100FB800EE81E695E695E6954E2FEE81E77009F00D
:100FC8004F5FEF81E030A1F0A985BA85EC93A88541
:100FD800EB85EA1BF0E0DF01EF81F0E00E94B70C3F
:100FE800DF01E42FF0E00E94B70CE00FF11F1EC0F4
:100FF8009801E52FF0E00E0F1F1FA885AF5FA887A7
:10100800A150EB85AE1760F4F9012F5F3F4FA49113
:10101800B0E0E42FF0E00E94B70C0E0F1F1FEDCFD9
:10102800F901E491A985BA85EC93F8010E944D0D68
:101038002C960895E0E0E0936201A0916301BB273C
:101048000E94450CF0E0AE0FBF1FE0916701F0E091
:10105800AE0FBF1F5BDFE09363010895AA9321974A
:101068000E94390C309709F455C0AF81AA3009F4B1
:101078004FC0EF81EA93DE0117966DDFAF0130971D
:1010880009F44AC0E0916601AE81EA0F3E2FA091B3
:101098006201BB27F0E0EA0FFB1F8F010138E0E097
:1010A8001E0718F0032F1127C5DFE0916201EA93AC
:1010B800E0916301EA93E885EA930E94450CEA937C
:1010C800E1E0EA935A934A93A7E02EDDE0916201AA
:1010D800AE81EA0FEA93E0916301EA93E091660139
:1010E800EA930E94450C0E944C0CE0916201EA933D
:1010F800A09163010E94450CEA0FEA933A93E091AC
:1011080067010E944C0CE0E8F0E0E017F10711F4E9
:1011180091DF02C0009362010E944D0D2896089548
:10112800BA93AA931A93A981BA81ED91A983BA8334
:101138001E2FE03019F0A12F91DFF5CF18810C9404
:10114800F40AAA93A981BB27CCDEE0936201A881A7
:10115800BB27DCDEE09363010C94AD0ABA93AA9333
:101168001A930A93AA81BB8112960E94180D309790
:1011780059F1AA81BB8114960E94180D8F013097EE
:1011880061F00230E0E01E0798F0F80131978F0116
:10119800AA81BB811496ED93FC93AA81BB81129618
:1011A800ED91FD913196FE93EE933197AC81A0833A
:1011B800AA81BB810E94180DFF232AF0ED91FD91B1
:1011C8003196FE93EE9306C0AA81BB81EFEFFFEF45
:1011D800ED93FC93198108810C94890ABA93AA9318
:1011E80026970E94460D10E0AC85BD85E0E0F0E052
:1011F800ED93FC93EA89FB893196EA8BFB8B319757
:10120800E4912E2FE03009F415C1E12FE03039F4D4
:10121800253211F411E002C00E94560C0AC1E130D7
:10122800A9F4253219F40E94560C02C112E040E0DC
:1012380000E02D3211F401E0FCC02B3211F44BE236
:10124800F8C0203211F440E2F4C002C0E23039F4B0
:1012580050E013E0203311F40068EBC003C0E33022
:1012680009F0E7C0203310F02A3308F007C0AAE0DD
:101278005A9F502DE22FE0535E0FDBC0E22FE3367A
:1012880049F40E945D0CE889F989A481AA930E9417
:10129800630CCEC0E33741F40E945D0C0E94690CD8
:1012A8000E948B0A1E2F0AC0E03761F40E945D0C71
:1012B8000E94690C0E94970A1E2F086002600F772F
:1012C80030E034C0E43611F0E93611F4046002C0AD
:1012D800E53731F4E2E4F2E0EE83FF8315E00CC079
:1012E800E83511F4086003C0E83709F0A1C0ECE460
:1012F800F2E0EE83FF8314E002FF14C00E945D0C4D
:101308000E94730CAB85AA233AF4EA85FB850E94F8
:10131800990CEA87FB874DE2403011F01F5F01C04E
:101328000B7F04C00E945D0C0E94730C00FD11C06D
:10133800151778F407FF08C002FF04C00B7F242F9D
:10134800115001C020E301C020E20E94560C515008
:10135800EFCF312F01FF17C03030A1F003FF06C0D7
:10136800EE81FF812591EE83FF8305C0AE81BF81A9
:101378002D91AE83BF830E94560C503009F0515016
:101388003150EACF4BC020E3EE81FF810E941C0D53
:10139800E887F987EE81FF813296EE83FF83E8853F
:1013A800F985AA85BB85AE17BF0750F02F5FA885C2
:1013B800B985EA85FB85EA1BFB0BEA87FB87EFCF3C
:1013C8002A3328F003FF02C0295F01C0295D04FD0C
:1013D8001AC0213320F4A885B985119709F409C0EA
:1013E800531710F000FF01C013C020E207FF0BC025
:1013F80020E3006102FF07C00B7F4A930E94630C41
:10140800503009F051500E94560C503009F051509C
:101418003150A885B985129708F0B5CF00FF08C0EC
:10142800503031F05150E0E2EA930E94630CF8CF5B
:1014380010E0E0CEAC85BD850E94180D0E944D0DD0
:1014480064960895FF92F82E26970E94480D0E94F0
:101458007B0C309719F4EFEFFFEF23C0DE011696EF
:101468000E94950C8D010E947B0CEE83FF83E0E0C7
:10147800E887E987DE011A960E94950C0E94180DEC
:10148800FA93EA931A930A93E2EBF8E0FA93EA9351
:10149800DE011A96A3DE9F01AE81BF81E0E0EC93E6
:1014A800F9010E944F0D2A96FF900895BA93AA93C6
:1014B800E881F9810E94B20C0E94820C0C94AD0A5A
:1014C800E0918003F091810360918203709183031E
:1014D800ADE6BEE486EC91E40E94BF0CEE59F848F4
:1014E8006F4F7F4F0E94820CFB01FF770895BA93DC
:1014F800AA93B981A881109631F0FC81EB816A81A9
:1015080061931197E9F7EB81FC8125960895BA93C9
:10151800AA93A991B991EE27FF276D91662311F03F
:101528003196FBCF0895BA93AA93AA27BB27E991CE
:10153800F9910590002011F01196FBCFFD01089557
:10154800AA93E881F0E0E85CFD4FA491E9810E944C
:101558009D0C22960895AA931A93E981E73011F019
:10156800EA3019F41091600109C0E93019F41091BA
:10157800610104C0E830A1F410917001E0916101AB
:10158800E03049F0103019F0EFEF188129C0EA81F6
:10159800E095188125C0103019F4E0E0188120C0CA
:1015A800EA8118811DC0BA93AA93EA81E13021F437
:1015B800E881F981E49114C0E23029F4A881B98165
:1015C8000E94250D0DC0E33041F4A881B981E09156
:1015D8007901F0917A01099503C0A881B981EC914C
:1015E80023960895AA93EB81E03029F4E881A98134
:1015F800BA81EC9314C0E23031F4E881A981BA8150
:101608000E94310D0CC0E33051F4E981FA81FA935C
:10161800EA93AA81E0917B01F0917C0109952496D7
:1016280008950E949F071A93A02F0895EA93A02F68
:101638000C949F070E949F07E12FEF5FF7CFAA93B3
:101648000E94480DEC81F0E0E358FE4FE0811E2F28
:10165800EC81F0E0E358FD4FE0810E2FE12FEF5FC2
:10166800EE0FEE0F3E2FE02FEF5FEE0FEE0F2E2F57
:101678003A93A22F08950E949F073A93A22F0895A4
:10168800AD5F0E949F07E32F0895EA93A22F0E945F
:101698009F07E32F0895EA93A22FAF5F0E949F0749
:1016A800E32F0895EA93A22FAE5F0E949F07E32FCE
:1016B80008950E94A7073A93A22F0895AD5F0E944C
:1016C800A707E32F0895EA93A22F0E94A707E32F05
:1016D8000895EA93A22FAF5F0E94A707E32F08950A
:1016E800EA93A22FAE5F0E94A707E32F0895EA931B
:1016F800A02FAF5F0E949F07E12F0895EA93A02FC4
:10170800AE5F0E949F07E12FEE5F0895F0E0EA0FB9
:10171800FB1F8F011070ADE7B1E0A00FB11FAC91B6
:101728000895E72DF0E0E358FE4F08955081E72D26
:10173800F0E0E358FD4FE0810895ADE7B2E0A00F77
:10174800B11F0895FE013F96FA93EA93EEE5F2E0A1
:10175800FA93EA930895FF27662777270E94200DBA
:1017680008958CE00E94260A6096E0E4EA930895C2
:101778000E94A508DE011F960E949408E3CF0E94EC
:10178800A508DE011F960C949408A42DB0E0E2E0B1
:10179800F0E00E94F70C08959198EFEFE4BBE88120
:1017A800E5BB0E942D040C943104AA93E981EA93C5
:1017B800E9810895E695E695E695AE2F0C946C04BC
:1017C8000E9490040C947B04EA0FFB1FEE83FF83B6
:1017D8000895EC85EA93EF81F8853196EF83F887D1
:1017E8003197FA93EA93A0E00C94F60AEC85EA9311
:1017F800EF81F8853196EF83F8873197089566274A
:101808007727DF01CB010C94D70A5A93AA850C9449
:10181800AF0A0A930395E889EA935A9308950A93BD
:101828000395A8890E94A204E42308955E2FEC85FD
:10183800EA93AF81B885882799270E94D70A1E2E78
:1018480008950A930395E889EA93EE85EA93E98572
:10185800FA853196E987FA873197D1CFBA93AA9357
:10186800A881B9810E94420D08950E94460DE09119
:101878006401F09165010895F8010F5F1F4F04900E
:101888000895E0916401F09165013196E49108951D
:10189800EA93E0E0EA93E0E0F0E0FA93EA93A9E063
:1018A8000C9498052A93AD85BE85EF85F88909952E
:1018B8000895E889F9893497E88BF98B0895AD85FF
:1018C800BE85EF85F88909950895A889B989149680
:1018D8000E94180DEE83FF83AE81BF810895A88909
:1018E800B98914960E94180DEA87FB870895DE01CE
:1018F8001C960E94950C0E94180D0895E093800391
:10190800F093810360938203709383030895109684
:1019180039F0A8958AEF90E00197F1F71197C9F788
:1019280008950024AF0DB01D0895F195E195F0409C
:101938000895EE230E2EEA2F19F0EE0F0A94E9F718
:101948000895EE230E2EEA2F19F0E6950A94E9F78A
:101958000895EE0FFF1FEE0FFF1F08956F2F660FFC
:10196800660B762F0895FA9FF02DEB9FF00DEA9FF6
:10197800E02DF10D08957A9F702D6B9F700DF89FE3
:10198800700DE99F700D6A9F602D710DFB9F600DB2
:10199800711DE89F600D711D8827FA9FF02D610D5C
:1019A800781FEB9FF00D611D781FEA9FE02DF10D68
:1019B800681F781F08952AD0D6DF0EF4B6DF089581
:1019C8000024112490E1AA0FBB1F001C111C0E1A41
:1019D8001F0A18F40E0E1F1E01C0A1609A9599F7F0
:1019E800FD01D001089512D0EBDF0EF49EDF0895BB
:1019F800E894B7FF04C0A095B09511966894F7FDD8
:101A080094DFDEDFFD010EF490DF0895E894F7FF20
:101A180002C08BDF6894B7FF06C0A095B0951196F9
:101A280000F8039400FA0895ED91FC911197089538
:101A38000590F491E02D08957A936A93FA93EA93C6
:101A48000895E199FECFFF93FFB7F894AEBBBFBBF3
:101A5800E09AEDB3FFBFFF910895E19B02C0A895FE
:101A6800FCCF9FB7F894AEBBBFBBE09A8DB3E81725
:101A780019F0EDBBE29AE19A9FBF089500240A1677
:101A88000B0608955A934A933A932A931A930A9302
:101A980008955D814C813B812A81198108810895CF
:00000001FF
